{
  "_format": "hh-sol-artifact-1",
  "contractName": "CoinFlip",
  "sourceName": "contracts/CoinFlip.sol",
  "abi": [
    {
      "inputs": [
        {
          "internalType": "string",
          "name": "subscriptionId",
          "type": "string"
        },
        {
          "internalType": "address",
          "name": "vrfCoordinator",
          "type": "address"
        },
        {
          "internalType": "bytes32",
          "name": "_keyHash",
          "type": "bytes32"
        }
      ],
      "stateMutability": "nonpayable",
      "type": "constructor"
    },
    {
      "inputs": [
        {
          "internalType": "address",
          "name": "have",
          "type": "address"
        },
        {
          "internalType": "address",
          "name": "want",
          "type": "address"
        }
      ],
      "name": "OnlyCoordinatorCanFulfill",
      "type": "error"
    },
    {
      "anonymous": false,
      "inputs": [
        {
          "indexed": false,
          "internalType": "enum CoinFlip.Coin",
          "name": "result",
          "type": "uint8"
        },
        {
          "indexed": false,
          "internalType": "address",
          "name": "player",
          "type": "address"
        }
      ],
      "name": "CoinFlipped",
      "type": "event"
    },
    {
      "anonymous": false,
      "inputs": [
        {
          "indexed": true,
          "internalType": "address",
          "name": "from",
          "type": "address"
        },
        {
          "indexed": true,
          "internalType": "address",
          "name": "to",
          "type": "address"
        }
      ],
      "name": "OwnershipTransferRequested",
      "type": "event"
    },
    {
      "anonymous": false,
      "inputs": [
        {
          "indexed": true,
          "internalType": "address",
          "name": "from",
          "type": "address"
        },
        {
          "indexed": true,
          "internalType": "address",
          "name": "to",
          "type": "address"
        }
      ],
      "name": "OwnershipTransferred",
      "type": "event"
    },
    {
      "inputs": [],
      "name": "acceptOwnership",
      "outputs": [],
      "stateMutability": "nonpayable",
      "type": "function"
    },
    {
      "inputs": [],
      "name": "flipCoin",
      "outputs": [],
      "stateMutability": "nonpayable",
      "type": "function"
    },
    {
      "inputs": [],
      "name": "getResult",
      "outputs": [
        {
          "internalType": "enum CoinFlip.Coin",
          "name": "",
          "type": "uint8"
        }
      ],
      "stateMutability": "view",
      "type": "function"
    },
    {
      "inputs": [],
      "name": "owner",
      "outputs": [
        {
          "internalType": "address",
          "name": "",
          "type": "address"
        }
      ],
      "stateMutability": "view",
      "type": "function"
    },
    {
      "inputs": [
        {
          "internalType": "uint256",
          "name": "requestId",
          "type": "uint256"
        },
        {
          "internalType": "uint256[]",
          "name": "randomWords",
          "type": "uint256[]"
        }
      ],
      "name": "rawFulfillRandomWords",
      "outputs": [],
      "stateMutability": "nonpayable",
      "type": "function"
    },
    {
      "inputs": [],
      "name": "result",
      "outputs": [
        {
          "internalType": "enum CoinFlip.Coin",
          "name": "",
          "type": "uint8"
        }
      ],
      "stateMutability": "view",
      "type": "function"
    },
    {
      "inputs": [
        {
          "internalType": "uint256",
          "name": "",
          "type": "uint256"
        }
      ],
      "name": "s_randomWords",
      "outputs": [
        {
          "internalType": "uint256",
          "name": "",
          "type": "uint256"
        }
      ],
      "stateMutability": "view",
      "type": "function"
    },
    {
      "inputs": [],
      "name": "s_requestId",
      "outputs": [
        {
          "internalType": "uint256",
          "name": "",
          "type": "uint256"
        }
      ],
      "stateMutability": "view",
      "type": "function"
    },
    {
      "inputs": [],
      "name": "s_subscriptionId",
      "outputs": [
        {
          "internalType": "string",
          "name": "",
          "type": "string"
        }
      ],
      "stateMutability": "view",
      "type": "function"
    },
    {
      "inputs": [
        {
          "internalType": "address",
          "name": "to",
          "type": "address"
        }
      ],
      "name": "transferOwnership",
      "outputs": [],
      "stateMutability": "nonpayable",
      "type": "function"
    }
  ],
  "bytecode": "0x60a0604052620186a0600560006101000a81548163ffffffff021916908363ffffffff1602179055506003600560046101000a81548161ffff021916908361ffff1602179055506001600560066101000a81548163ffffffff021916908363ffffffff1602179055503480156200007557600080fd5b5060405162001a8638038062001a8683398181016040528101906200009b9190620004cb565b33806000848073ffffffffffffffffffffffffffffffffffffffff1660808173ffffffffffffffffffffffffffffffffffffffff1660601b8152505050600073ffffffffffffffffffffffffffffffffffffffff168273ffffffffffffffffffffffffffffffffffffffff1614156200014b576040517f08c379a0000000000000000000000000000000000000000000000000000000008152600401620001429062000594565b60405180910390fd5b816000806101000a81548173ffffffffffffffffffffffffffffffffffffffff021916908373ffffffffffffffffffffffffffffffffffffffff160217905550600073ffffffffffffffffffffffffffffffffffffffff168173ffffffffffffffffffffffffffffffffffffffff1614620001d257620001d1816200023f60201b60201c565b5b50505081600260006101000a81548173ffffffffffffffffffffffffffffffffffffffff021916908373ffffffffffffffffffffffffffffffffffffffff16021790555082600390805190602001906200022e9291906200036f565b508060048190555050505062000831565b3373ffffffffffffffffffffffffffffffffffffffff168173ffffffffffffffffffffffffffffffffffffffff161415620002b1576040517f08c379a0000000000000000000000000000000000000000000000000000000008152600401620002a890620005b6565b60405180910390fd5b80600160006101000a81548173ffffffffffffffffffffffffffffffffffffffff021916908373ffffffffffffffffffffffffffffffffffffffff1602179055508073ffffffffffffffffffffffffffffffffffffffff1660008054906101000a900473ffffffffffffffffffffffffffffffffffffffff1673ffffffffffffffffffffffffffffffffffffffff167fed8889f560326eb138920d842192f0eb3dd22b4f139c87a2c57538e05bae127860405160405180910390a350565b8280546200037d90620006bc565b90600052602060002090601f016020900481019282620003a15760008555620003ed565b82601f10620003bc57805160ff1916838001178555620003ed565b82800160010185558215620003ed579182015b82811115620003ec578251825591602001919060010190620003cf565b5b509050620003fc919062000400565b5090565b5b808211156200041b57600081600090555060010162000401565b5090565b600062000436620004308462000601565b620005d8565b9050828152602081018484840111156200045557620004546200078b565b5b6200046284828562000686565b509392505050565b6000815190506200047b81620007fd565b92915050565b600081519050620004928162000817565b92915050565b600082601f830112620004b057620004af62000786565b5b8151620004c28482602086016200041f565b91505092915050565b600080600060608486031215620004e757620004e662000795565b5b600084015167ffffffffffffffff81111562000508576200050762000790565b5b620005168682870162000498565b935050602062000529868287016200046a565b92505060406200053c8682870162000481565b9150509250925092565b60006200055560188362000637565b91506200056282620007ab565b602082019050919050565b60006200057c60178362000637565b91506200058982620007d4565b602082019050919050565b60006020820190508181036000830152620005af8162000546565b9050919050565b60006020820190508181036000830152620005d1816200056d565b9050919050565b6000620005e4620005f7565b9050620005f28282620006f2565b919050565b6000604051905090565b600067ffffffffffffffff8211156200061f576200061e62000757565b5b6200062a826200079a565b9050602081019050919050565b600082825260208201905092915050565b6000620006558262000666565b9050919050565b6000819050919050565b600073ffffffffffffffffffffffffffffffffffffffff82169050919050565b60005b83811015620006a657808201518184015260208101905062000689565b83811115620006b6576000848401525b50505050565b60006002820490506001821680620006d557607f821691505b60208210811415620006ec57620006eb62000728565b5b50919050565b620006fd826200079a565b810181811067ffffffffffffffff821117156200071f576200071e62000757565b5b80604052505050565b7f4e487b7100000000000000000000000000000000000000000000000000000000600052602260045260246000fd5b7f4e487b7100000000000000000000000000000000000000000000000000000000600052604160045260246000fd5b600080fd5b600080fd5b600080fd5b600080fd5b6000601f19601f8301169050919050565b7f43616e6e6f7420736574206f776e657220746f207a65726f0000000000000000600082015250565b7f43616e6e6f74207472616e7366657220746f2073656c66000000000000000000600082015250565b620008088162000648565b81146200081457600080fd5b50565b62000822816200065c565b81146200082e57600080fd5b50565b60805160601c61122f62000857600039600081816101b7015261020b015261122f6000f3fe608060405234801561001057600080fd5b506004361061009e5760003560e01c80638da5cb5b116100665780638da5cb5b1461010f578063de2927891461012d578063e89e106a1461014b578063f2fde38b14610169578063f6eaffc8146101855761009e565b80631fe543e3146100a357806365372147146100bf578063799ae223146100dd57806379ba5097146100e75780638ac00021146100f1575b600080fd5b6100bd60048036038101906100b89190610a5a565b6101b5565b005b6100c7610275565b6040516100d49190610d11565b60405180910390f35b6100e5610288565b005b6100ef6103a5565b005b6100f961053a565b6040516101069190610d55565b60405180910390f35b6101176105c8565b6040516101249190610c7a565b60405180910390f35b6101356105f1565b6040516101429190610d11565b60405180910390f35b610153610608565b6040516101609190610df7565b60405180910390f35b610183600480360381019061017e91906109d3565b61060e565b005b61019f600480360381019061019a9190610a00565b610622565b6040516101ac9190610df7565b60405180910390f35b7f000000000000000000000000000000000000000000000000000000000000000073ffffffffffffffffffffffffffffffffffffffff163373ffffffffffffffffffffffffffffffffffffffff161461026757337f00000000000000000000000000000000000000000000000000000000000000006040517f1cf993f400000000000000000000000000000000000000000000000000000000815260040161025e929190610c95565b60405180910390fd5b6102718282610646565b5050565b600860149054906101000a900460ff1681565b600260009054906101000a900473ffffffffffffffffffffffffffffffffffffffff1673ffffffffffffffffffffffffffffffffffffffff16635d3b1d3060045460036040516020016102db9190610c63565b6040516020818303038152906040528051906020012060c01c600560049054906101000a900461ffff16600560009054906101000a900463ffffffff16600560069054906101000a900463ffffffff166040518663ffffffff1660e01b815260040161034b959493929190610cbe565b602060405180830381600087803b15801561036557600080fd5b505af1158015610379573d6000803e3d6000fd5b505050506040513d601f19601f8201168201806040525081019061039d9190610a2d565b600781905550565b600160009054906101000a900473ffffffffffffffffffffffffffffffffffffffff1673ffffffffffffffffffffffffffffffffffffffff163373ffffffffffffffffffffffffffffffffffffffff1614610435576040517f08c379a000000000000000000000000000000000000000000000000000000000815260040161042c90610d77565b60405180910390fd5b60008060009054906101000a900473ffffffffffffffffffffffffffffffffffffffff169050336000806101000a81548173ffffffffffffffffffffffffffffffffffffffff021916908373ffffffffffffffffffffffffffffffffffffffff1602179055506000600160006101000a81548173ffffffffffffffffffffffffffffffffffffffff021916908373ffffffffffffffffffffffffffffffffffffffff1602179055503373ffffffffffffffffffffffffffffffffffffffff168173ffffffffffffffffffffffffffffffffffffffff167f8be0079c531659141344cd1fd0a4f28419497f9722a3daafe3b4186f6b6457e060405160405180910390a350565b6003805461054790610f6f565b80601f016020809104026020016040519081016040528092919081815260200182805461057390610f6f565b80156105c05780601f10610595576101008083540402835291602001916105c0565b820191906000526020600020905b8154815290600101906020018083116105a357829003601f168201915b505050505081565b60008060009054906101000a900473ffffffffffffffffffffffffffffffffffffffff16905090565b6000600860149054906101000a900460ff16905090565b60075481565b610616610739565b61061f816107c9565b50565b6006818154811061063257600080fd5b906000526020600020016000915090505481565b816007541461068a576040517f08c379a000000000000000000000000000000000000000000000000000000000815260040161068190610db7565b60405180910390fd5b6002816000815181106106a05761069f611090565b5b60200260200101516106b29190610fd2565b60018111156106c4576106c3611032565b5b600860146101000a81548160ff021916908360018111156106e8576106e7611032565b5b02179055507f9709666ce83d11347e5c96f6e7f76e7a02670828de8e4c7d35a3195b2f8bf9d7600860149054906101000a900460ff163360405161072d929190610d2c565b60405180910390a15050565b60008054906101000a900473ffffffffffffffffffffffffffffffffffffffff1673ffffffffffffffffffffffffffffffffffffffff163373ffffffffffffffffffffffffffffffffffffffff16146107c7576040517f08c379a00000000000000000000000000000000000000000000000000000000081526004016107be90610d97565b60405180910390fd5b565b3373ffffffffffffffffffffffffffffffffffffffff168173ffffffffffffffffffffffffffffffffffffffff161415610838576040517f08c379a000000000000000000000000000000000000000000000000000000000815260040161082f90610dd7565b60405180910390fd5b80600160006101000a81548173ffffffffffffffffffffffffffffffffffffffff021916908373ffffffffffffffffffffffffffffffffffffffff1602179055508073ffffffffffffffffffffffffffffffffffffffff1660008054906101000a900473ffffffffffffffffffffffffffffffffffffffff1673ffffffffffffffffffffffffffffffffffffffff167fed8889f560326eb138920d842192f0eb3dd22b4f139c87a2c57538e05bae127860405160405180910390a350565b600061090961090484610e37565b610e12565b9050808382526020820190508285602086028201111561092c5761092b6110f3565b5b60005b8581101561095c578161094288826109a9565b84526020840193506020830192505060018101905061092f565b5050509392505050565b600081359050610975816111cb565b92915050565b600082601f8301126109905761098f6110ee565b5b81356109a08482602086016108f6565b91505092915050565b6000813590506109b8816111e2565b92915050565b6000815190506109cd816111e2565b92915050565b6000602082840312156109e9576109e86110fd565b5b60006109f784828501610966565b91505092915050565b600060208284031215610a1657610a156110fd565b5b6000610a24848285016109a9565b91505092915050565b600060208284031215610a4357610a426110fd565b5b6000610a51848285016109be565b91505092915050565b60008060408385031215610a7157610a706110fd565b5b6000610a7f858286016109a9565b925050602083013567ffffffffffffffff811115610aa057610a9f6110f8565b5b610aac8582860161097b565b9150509250929050565b610abf81610e9f565b82525050565b610ace81610eb1565b82525050565b610add81610f2a565b82525050565b6000610aee82610e78565b610af88185610e83565b9350610b08818560208601610f3c565b610b1181611102565b840191505092915050565b60008154610b2981610f6f565b610b338186610e94565b94506001821660008114610b4e5760018114610b5f57610b92565b60ff19831686528186019350610b92565b610b6885610e63565b60005b83811015610b8a57815481890152600182019150602081019050610b6b565b838801955050505b50505092915050565b6000610ba8601683610e83565b9150610bb382611113565b602082019050919050565b6000610bcb601683610e83565b9150610bd68261113c565b602082019050919050565b6000610bee601383610e83565b9150610bf982611165565b602082019050919050565b6000610c11601783610e83565b9150610c1c8261118e565b602082019050919050565b610c3081610ece565b82525050565b610c3f81610efc565b82525050565b610c4e81610f06565b82525050565b610c5d81610f16565b82525050565b6000610c6f8284610b1c565b915081905092915050565b6000602082019050610c8f6000830184610ab6565b92915050565b6000604082019050610caa6000830185610ab6565b610cb76020830184610ab6565b9392505050565b600060a082019050610cd36000830188610ac5565b610ce06020830187610c54565b610ced6040830186610c27565b610cfa6060830185610c45565b610d076080830184610c45565b9695505050505050565b6000602082019050610d266000830184610ad4565b92915050565b6000604082019050610d416000830185610ad4565b610d4e6020830184610ab6565b9392505050565b60006020820190508181036000830152610d6f8184610ae3565b905092915050565b60006020820190508181036000830152610d9081610b9b565b9050919050565b60006020820190508181036000830152610db081610bbe565b9050919050565b60006020820190508181036000830152610dd081610be1565b9050919050565b60006020820190508181036000830152610df081610c04565b9050919050565b6000602082019050610e0c6000830184610c36565b92915050565b6000610e1c610e2d565b9050610e288282610fa1565b919050565b6000604051905090565b600067ffffffffffffffff821115610e5257610e516110bf565b5b602082029050602081019050919050565b60008190508160005260206000209050919050565b600081519050919050565b600082825260208201905092915050565b600081905092915050565b6000610eaa82610edc565b9050919050565b6000819050919050565b6000819050610ec9826111b7565b919050565b600061ffff82169050919050565b600073ffffffffffffffffffffffffffffffffffffffff82169050919050565b6000819050919050565b600063ffffffff82169050919050565b600067ffffffffffffffff82169050919050565b6000610f3582610ebb565b9050919050565b60005b83811015610f5a578082015181840152602081019050610f3f565b83811115610f69576000848401525b50505050565b60006002820490506001821680610f8757607f821691505b60208210811415610f9b57610f9a611061565b5b50919050565b610faa82611102565b810181811067ffffffffffffffff82111715610fc957610fc86110bf565b5b80604052505050565b6000610fdd82610efc565b9150610fe883610efc565b925082610ff857610ff7611003565b5b828206905092915050565b7f4e487b7100000000000000000000000000000000000000000000000000000000600052601260045260246000fd5b7f4e487b7100000000000000000000000000000000000000000000000000000000600052602160045260246000fd5b7f4e487b7100000000000000000000000000000000000000000000000000000000600052602260045260246000fd5b7f4e487b7100000000000000000000000000000000000000000000000000000000600052603260045260246000fd5b7f4e487b7100000000000000000000000000000000000000000000000000000000600052604160045260246000fd5b600080fd5b600080fd5b600080fd5b600080fd5b6000601f19601f8301169050919050565b7f4d7573742062652070726f706f736564206f776e657200000000000000000000600082015250565b7f4f6e6c792063616c6c61626c65206279206f776e657200000000000000000000600082015250565b7f52657175657374204944206d69736d6174636800000000000000000000000000600082015250565b7f43616e6e6f74207472616e7366657220746f2073656c66000000000000000000600082015250565b600281106111c8576111c7611032565b5b50565b6111d481610e9f565b81146111df57600080fd5b50565b6111eb81610efc565b81146111f657600080fd5b5056fea26469706673582212209347f9a748e073bf9d51a8c3325b833ea8eec42ad4d3cf4a70ff31a5a9f03b2064736f6c63430008070033",
  "linkReferences": {},
  "deployedLinkReferences": {}
}